{
  "contractName": "Exchange",
  "abi": [
    {
      "constant": true,
      "inputs": [],
      "name": "feeAccount",
      "outputs": [
        {
          "name": "",
          "type": "address"
        }
      ],
      "payable": false,
      "stateMutability": "view",
      "type": "function"
    },
    {
      "inputs": [
        {
          "name": "_feeAccount",
          "type": "address"
        }
      ],
      "payable": false,
      "stateMutability": "nonpayable",
      "type": "constructor"
    }
  ],
  "bytecode": "0x608060405234801561001057600080fd5b506040516020806101568339810180604052602081101561003057600080fd5b8101908080519060200190929190505050806000806101000a81548173ffffffffffffffffffffffffffffffffffffffff021916908373ffffffffffffffffffffffffffffffffffffffff1602179055505060c6806100906000396000f3fe6080604052348015600f57600080fd5b506004361060285760003560e01c806365e17c9d14602d575b600080fd5b60336075565b604051808273ffffffffffffffffffffffffffffffffffffffff1673ffffffffffffffffffffffffffffffffffffffff16815260200191505060405180910390f35b6000809054906101000a900473ffffffffffffffffffffffffffffffffffffffff168156fea165627a7a72305820dcc02d68a806832c1d6086ba418c510caad59311e5264d89a4280cbaac6918360029",
  "source": "pragma solidity ^0.5.0;\n\ncontract Exchange {\n\n    // Set fees and account\n    // Charge fees\n    // Deposit Eth\n    // Withdraw Eth\n    // Deposit Tokens\n    // Withdraw Tokens\n    // Check Balance\n    // Make Order\n    // Fill Order\n    // Cancel Order\n\n    address payable public feeAccount;\n\n    constructor (address payable _feeAccount) public {\n        feeAccount = _feeAccount;\n    }\n\n}",
  "sourcePath": "/Users/alexroan/Documents/Projects/Blockchain/DApps/blockchain-developer-bootcamp/src/contracts/Exchange.sol",
  "compiler": {
    "name": "solc",
    "version": "0.5.8+commit.23d335f2.Emscripten.clang"
  },
  "schemaVersion": "3.0.16",
  "updatedAt": "2019-11-03T13:32:16.995Z",
  "devdoc": {
    "methods": {}
  },
  "userdoc": {
    "methods": {}
  }
}